{
  "contractName": "Boson",
  "abi": [
    {
      "inputs": [],
      "stateMutability": "nonpayable",
      "type": "constructor"
    },
    {
      "inputs": [],
      "name": "admin",
      "outputs": [
        {
          "internalType": "address",
          "name": "",
          "type": "address"
        }
      ],
      "stateMutability": "view",
      "type": "function",
      "constant": true
    },
    {
      "inputs": [
        {
          "internalType": "address",
          "name": "_seller",
          "type": "address"
        }
      ],
      "name": "addSeller",
      "outputs": [],
      "stateMutability": "nonpayable",
      "type": "function"
    },
    {
      "inputs": [
        {
          "internalType": "uint256",
          "name": "_tokenID",
          "type": "uint256"
        },
        {
          "internalType": "string",
          "name": "_title",
          "type": "string"
        },
        {
          "internalType": "uint256",
          "name": "_price",
          "type": "uint256"
        }
      ],
      "name": "addItemForSale",
      "outputs": [],
      "stateMutability": "nonpayable",
      "type": "function"
    },
    {
      "inputs": [
        {
          "internalType": "uint256",
          "name": "_tokenID",
          "type": "uint256"
        }
      ],
      "name": "purchaseItem",
      "outputs": [],
      "stateMutability": "payable",
      "type": "function",
      "payable": true
    },
    {
      "inputs": [
        {
          "internalType": "uint256",
          "name": "_tokenID",
          "type": "uint256"
        }
      ],
      "name": "confirmReceived",
      "outputs": [],
      "stateMutability": "payable",
      "type": "function",
      "payable": true
    },
    {
      "inputs": [
        {
          "internalType": "uint256",
          "name": "_tokenID",
          "type": "uint256"
        }
      ],
      "name": "complaint",
      "outputs": [],
      "stateMutability": "payable",
      "type": "function",
      "payable": true
    },
    {
      "inputs": [],
      "name": "getContractBalance",
      "outputs": [
        {
          "internalType": "uint256",
          "name": "",
          "type": "uint256"
        }
      ],
      "stateMutability": "view",
      "type": "function",
      "constant": true
    }
  ],
  "bytecode": "0x608060405234801561001057600080fd5b50600380546001600160a01b0319908116331790915560008054909116301790556109db806100406000396000f3fe6080604052600436106100705760003560e01c8063b19537b71161004e578063b19537b7146100c8578063d38ea5bf146100e8578063d93fabfa146100fb578063f851a4401461011b57610070565b806327dac36d14610075578063307dda901461008a5780636f9fb98a1461009d575b600080fd5b6100886100833660046106d0565b61013d565b005b6100886100983660046106d0565b610243565b3480156100a957600080fd5b506100b2610334565b6040516100bf919061094b565b60405180910390f35b3480156100d457600080fd5b506100886100e33660046106e8565b610338565b6100886100f63660046106d0565b61046f565b34801561010757600080fd5b506100886101163660046106a2565b610539565b34801561012757600080fd5b50610130610572565b6040516100bf919061079d565b80600280600083815260046020819052604090912060020154600160a01b900460ff169081111561017e57634e487b7160e01b600052602160045260246000fd5b146101a45760405162461bcd60e51b815260040161019b9061088a565b60405180910390fd5b6000838152600460205260409020600301546001600160a01b03163381146101de5760405162461bcd60e51b815260040161019b906107f6565b600084815260046020526040808220600101549051339282156108fc02929190818181858888f1935050505015801561021b573d6000803e3d6000fd5b505050600091825250600460205260409020600201805460ff60a01b1916600360a01b179055565b80600280600083815260046020819052604090912060020154600160a01b900460ff169081111561028457634e487b7160e01b600052602160045260246000fd5b146102a15760405162461bcd60e51b815260040161019b9061088a565b6000838152600460205260409020600301546001600160a01b03163381146102db5760405162461bcd60e51b815260040161019b906107f6565b60008481526004602052604080822060028101805460ff60a01b1916600160a21b179055600101549051339282156108fc02929190818181858888f1935050505015801561032d573d6000803e3d6000fd5b5050505050565b4790565b60008381526004602052604090206002015483906001600160a01b0316156103725760405162461bcd60e51b815260040161019b90610853565b33600090815260056020526040902061038b9085610581565b506040805160a0810182528481526020808201859052338284015260016060830152600060808301819052878152600482529290922081518051929391926103d69284920190610609565b506020820151600182015560408201516002820180546001600160a01b0319166001600160a01b03909216919091178082556060840151919060ff60a01b1916600160a01b83600481111561043b57634e487b7160e01b600052602160045260246000fd5b021790555060809190910151600390910180546001600160a01b0319166001600160a01b0390921691909117905550505050565b80600180600083815260046020819052604090912060020154600160a01b900460ff16908111156104b057634e487b7160e01b600052602160045260246000fd5b146104cd5760405162461bcd60e51b815260040161019b9061088a565b6000838152600460205260409020600101543481146104fe5760405162461bcd60e51b815260040161019b90610906565b505050600090815260046020526040902060028101805460ff60a01b1916600160a11b17905560030180546001600160a01b03191633179055565b6003546001600160a01b031633146105635760405162461bcd60e51b815260040161019b906107b1565b61056e600182610596565b5050565b6003546001600160a01b031681565b600061058d83836105a7565b90505b92915050565b600061058d836001600160a01b0384165b60006105b383836105f1565b6105e957508154600181810184556000848152602080822090930184905584548482528286019093526040902091909155610590565b506000610590565b60009081526001919091016020526040902054151590565b82805461061590610954565b90600052602060002090601f016020900481019282610637576000855561067d565b82601f1061065057805160ff191683800117855561067d565b8280016001018555821561067d579182015b8281111561067d578251825591602001919060010190610662565b5061068992915061068d565b5090565b5b80821115610689576000815560010161068e565b6000602082840312156106b3578081fd5b81356001600160a01b03811681146106c9578182fd5b9392505050565b6000602082840312156106e1578081fd5b5035919050565b6000806000606084860312156106fc578182fd5b8335925060208085013567ffffffffffffffff8082111561071b578485fd5b818701915087601f83011261072e578485fd5b8135818111156107405761074061098f565b604051601f8201601f19168101850183811182821017156107635761076361098f565b60405281815283820185018a1015610779578687fd5b81858501868301379081019093019490945250929592945050506040919091013590565b6001600160a01b0391909116815260200190565b60208082526025908201527f4f6e6c79207468652061646d696e2063616e2063616c6c20746869732066756e60408201526431ba34b7b760d91b606082015260800190565b6020808252603e908201527f4d69736d61746368206265747765656e20746865206d6573736167652073656e60408201527f64657220616e642074686520617070726f7072696174652073656e6465720000606082015260800190565b6020808252601c908201527f5468652069642068617320616c7265616479206265656e207573656400000000604082015260600190565b60208082526056908201527f54686572652069732061206d69736d61746368206265747765656e207468652060408201527f66756e6374696f6e2063616c6c656420616e6420746865207374617465206f66606082015275103a34329034ba32b6b9903a3930b739b0b1ba34b7b760511b608082015260a00190565b60208082526025908201527f4d69736d61746368206265747765656e20707269636520616e642076616c7565604082015264081cd95b9d60da1b606082015260800190565b90815260200190565b60028104600182168061096857607f821691505b6020821081141561098957634e487b7160e01b600052602260045260246000fd5b50919050565b634e487b7160e01b600052604160045260246000fdfea2646970667358221220b3f66376d4347f278182ca528d2251e55c109d5a6859d4d6784fccd0a5128a0f64736f6c63430008000033",
  "immutableReferences": {},
  "source": "pragma solidity ^0.8.0;\n\nimport \"./library/EnumerableSet.sol\";\n\ncontract Boson{\n    using EnumerableSet for EnumerableSet.AddressSet;\n    using EnumerableSet for EnumerableSet.UintSet;\n    address payable caddress;\n\n    EnumerableSet.AddressSet Sellers;\n    address public admin;\n    // 0 -> Not for sale\n    // 1 -> Item for sale\n    // 2 -> Item bought\n    // 3 -> Item received\n    // 4 -> complaint\n    \n    // we will use enum \n    enum SaleState {NONE,SALE,BOUGHT,RECEIVED,COMPLAINT}\n\n    struct item {\n        string  title;\n        uint256 price;\n        address seller;\n        SaleState saleState;\n        address buyer;\n    }\n   \n    constructor() {\n        admin = msg.sender;\n        caddress =payable(address(this));\n\n    }\n   \n    mapping (uint256 => item) itemsForSale;\n    mapping (address => EnumerableSet.UintSet) internal itemsPerSeller;\n    //\n    modifier isAdmin(){\n        require(msg.sender==admin,'Only the admin can call this function');\n        _;\n    }\n    modifier isSeller(){\n        require(Sellers.contains(msg.sender),'Only a seller can call this function');\n        _;\n    }\n    modifier idNotTaken(uint256 _tokenID){\n        require(itemsForSale[_tokenID].seller == address(0),'The id has already been used');\n        _;\n    }\n   \n    modifier tokenStateIs(uint256 _tokenID, SaleState _saleState){\n        require(itemsForSale[_tokenID].saleState==_saleState,'There is a mismatch between the function called and the state of the items transaction');\n        _;\n    }\n   \n    modifier senderIs(address _address){\n        require(msg.sender==_address,'Mismatch between the message sender and the appropriate sender');\n        _;\n    }\n   \n    modifier valueIs(uint256 value){\n        require(msg.value==value,'Mismatch between price and value sent');\n        _;\n    }\n   \n    function addSeller(address _seller) isAdmin public {\n        Sellers.add(_seller);\n    }\n   \n   \n    function addItemForSale(uint256 _tokenID, string memory _title,uint256 _price) idNotTaken(_tokenID) public{\n        // require that the token index isnt already forsale\n        itemsPerSeller[msg.sender].add(_tokenID);\n        itemsForSale[_tokenID] = item(_title,_price,msg.sender,SaleState.SALE,address(0));\n    }\n   \n   \n    // still need to require that msg.value== the price\n    function purchaseItem(uint256 _tokenID) tokenStateIs(_tokenID, SaleState.SALE) valueIs(itemsForSale[_tokenID].price) public payable{\n         itemsForSale[_tokenID].saleState = SaleState.BOUGHT;\n         itemsForSale[_tokenID].buyer = msg.sender;\n    }\n   \n    function confirmReceived(uint256 _tokenID) tokenStateIs(_tokenID,SaleState.BOUGHT) senderIs(itemsForSale[_tokenID].buyer)public payable {\n        payable(msg.sender).transfer(itemsForSale[_tokenID].price);\n        itemsForSale[_tokenID].saleState=SaleState.RECEIVED;\n    }\n   \n    function complaint(uint256 _tokenID) tokenStateIs(_tokenID,SaleState.BOUGHT) senderIs(itemsForSale[_tokenID].buyer) public payable{\n        itemsForSale[_tokenID].saleState=SaleState.COMPLAINT;\n        // track complaints\n        //resend the funds to the buyer\n        payable(msg.sender).transfer(itemsForSale[_tokenID].price);\n    }\n   \n    function getContractBalance() public view returns(uint256){\n        return address(this).balance;\n    }\n   \n}",
  "sourcePath": "/home/lg/Documents/boson/tutorial/contracts/Boson.sol",
  "compiler": {
    "name": "solc",
    "version": "0.8.0+commit.c7dfd78e.Emscripten.clang"
  },
  "schemaVersion": "3.3.3",
  "updatedAt": "2021-02-03T20:33:49.987Z",
  "networkType": "ethereum",
  "devdoc": {
    "kind": "dev",
    "methods": {},
    "version": 1
  },
  "userdoc": {
    "kind": "user",
    "methods": {},
    "version": 1
  }
}